{
  "contractName": "Bet",
  "abi": [
    {
      "anonymous": false,
      "inputs": [
        {
          "indexed": false,
          "internalType": "address",
          "name": "user",
          "type": "address"
        },
        {
          "indexed": false,
          "internalType": "uint256",
          "name": "amount",
          "type": "uint256"
        },
        {
          "indexed": false,
          "internalType": "bool",
          "name": "wonOrLost",
          "type": "bool"
        }
      ],
      "name": "betOutcome",
      "type": "event"
    },
    {
      "inputs": [],
      "name": "contractBalance",
      "outputs": [
        {
          "internalType": "uint256",
          "name": "",
          "type": "uint256"
        }
      ],
      "stateMutability": "view",
      "type": "function",
      "constant": true
    },
    {
      "inputs": [],
      "name": "owner",
      "outputs": [
        {
          "internalType": "address",
          "name": "",
          "type": "address"
        }
      ],
      "stateMutability": "view",
      "type": "function",
      "constant": true
    },
    {
      "inputs": [
        {
          "internalType": "uint256",
          "name": "bettedOutcome",
          "type": "uint256"
        }
      ],
      "name": "placeBet",
      "outputs": [],
      "stateMutability": "payable",
      "type": "function",
      "payable": true
    },
    {
      "inputs": [],
      "name": "withdrawAll",
      "outputs": [
        {
          "internalType": "uint256",
          "name": "",
          "type": "uint256"
        }
      ],
      "stateMutability": "nonpayable",
      "type": "function"
    }
  ],
  "bytecode": "0x608060405234801561001057600080fd5b50336000806101000a81548173ffffffffffffffffffffffffffffffffffffffff021916908373ffffffffffffffffffffffffffffffffffffffff160217905550610507806100606000396000f3fe60806040526004361061003f5760003560e01c806310fe7c4814610044578063853828b6146100725780638b7afe2e1461009d5780638da5cb5b146100c8575b600080fd5b6100706004803603602081101561005a57600080fd5b8101908080359060200190929190505050610109565b005b34801561007e57600080fd5b50610087610388565b6040518082815260200191505060405180910390f35b3480156100a957600080fd5b506100b2610440565b6040518082815260200191505060405180910390f35b3480156100d457600080fd5b506100dd610446565b604051808273ffffffffffffffffffffffffffffffffffffffff16815260200191505060405180910390f35b64e8d4a5100080341015610185576040517f08c379a000000000000000000000000000000000000000000000000000000000815260040180806020018281038252601a8152602001807f4e6f7420656e6f7567682045746865722070726f76696465642e00000000000081525060200191505060405180910390fd5b344710156101de576040517f08c379a00000000000000000000000000000000000000000000000000000000081526004018080602001828103825260278152602001806104ab6027913960400191505060405180910390fd5b60008214806101ed5750600182145b610242576040517f08c379a000000000000000000000000000000000000000000000000000000000815260040180806020018281038252602e81526020018061047d602e913960400191505060405180910390fd5b61024a61046a565b821415610313573373ffffffffffffffffffffffffffffffffffffffff166108fc600234029081150290604051600060405180830381858888f1935050505015801561029a573d6000803e3d6000fd5b50600234026001600082825403925050819055507f6cab1a8b5547bd7f36e7577e65bfdf5c0963a6e78944190c6f9b9b82500a226c33346001604051808473ffffffffffffffffffffffffffffffffffffffff1681526020018381526020018215158152602001935050505060405180910390a1610384565b346001600082825401925050819055507f6cab1a8b5547bd7f36e7577e65bfdf5c0963a6e78944190c6f9b9b82500a226c33346000604051808473ffffffffffffffffffffffffffffffffffffffff1681526020018381526020018215158152602001935050505060405180910390a15b5050565b60008060009054906101000a900473ffffffffffffffffffffffffffffffffffffffff1673ffffffffffffffffffffffffffffffffffffffff163373ffffffffffffffffffffffffffffffffffffffff16146103e357600080fd5b6000600154905060006001819055503373ffffffffffffffffffffffffffffffffffffffff166108fc829081150290604051600060405180830381858888f19350505050158015610438573d6000803e3d6000fd5b508091505090565b60015481565b60008054906101000a900473ffffffffffffffffffffffffffffffffffffffff1681565b60006002428161047657fe5b0690509056fe75736572206d75737420626574206f6e2065697468657220486561647320283029206f72205461696c732028312954686520636f6e747261637420646f6573206e6f74206861766520656e6f7567682066756e6473a26469706673582212202cbdd54abfe47b55b8709f56772ac8fd055c3957b0cd809b373f7b8586e1966764736f6c63430007000033",
  "immutableReferences": {},
  "source": "// SPDX-License-Identifier: UNLICENSED\npragma solidity \"0.7.0\";\n\nimport \"./Ownable.sol\";\n\ncontract Bet is Ownable {\n    uint256 public contractBalance;\n    \n    event betOutcome(address user, uint256 amount, bool wonOrLost);\n\n    modifier minimum(uint256 amount) {\n        require(msg.value >= amount, \"Not enough Ether provided.\");\n        _;\n    }\n\n    function placeBet(uint256 bettedOutcome)\n        public\n        payable\n        minimum(1000 gwei)\n    {\n        require(address(this).balance >= msg.value, \"The contract does not have enough funds\");\n        require(bettedOutcome == 0 || bettedOutcome == 1,\n            \"user must bet on either Heads (0) or Tails (1)\"\n        );\n\n        if (bettedOutcome == flipCoin()) {\n            msg.sender.transfer(msg.value * 2);\n            // TODO: count tx fee?\n            contractBalance -= msg.value * 2;\n            emit betOutcome(msg.sender, msg.value, true);\n        } else {\n            contractBalance += msg.value;\n            emit betOutcome(msg.sender, msg.value, false);\n        }\n    }\n\n    // TODO: use an oracle\n    function flipCoin() private view returns (uint256) {\n        return block.timestamp % 2;\n    }\n\n\n    function withdrawAll() public onlyOwner returns (uint256) {\n        uint256 toWithdraw = contractBalance;\n        contractBalance = 0;\n        msg.sender.transfer(toWithdraw);\n\n        return toWithdraw;\n    }\n}\n",
  "sourcePath": "/Users/franzmoro/SW/crypto/eth_smart_contracts/CoinFlipPred/Flipper/contracts/Bet.sol",
  "compiler": {
    "name": "solc",
    "version": "0.7.0+commit.9e61f92b.Emscripten.clang"
  },
  "schemaVersion": "3.2.5",
  "updatedAt": "2020-10-02T20:18:45.960Z",
  "networkType": "ethereum",
  "devdoc": {
    "kind": "dev",
    "methods": {},
    "version": 1
  },
  "userdoc": {
    "kind": "user",
    "methods": {},
    "version": 1
  }
}