{
  "contractName": "BetFlipMockOutcome",
  "abi": [
    {
      "inputs": [
        {
          "internalType": "uint256",
          "name": "forcedResult",
          "type": "uint256"
        }
      ],
      "stateMutability": "nonpayable",
      "type": "constructor"
    },
    {
      "anonymous": false,
      "inputs": [
        {
          "indexed": false,
          "internalType": "address",
          "name": "user",
          "type": "address"
        },
        {
          "indexed": false,
          "internalType": "uint256",
          "name": "amount",
          "type": "uint256"
        },
        {
          "indexed": false,
          "internalType": "bool",
          "name": "wonOrLost",
          "type": "bool"
        }
      ],
      "name": "betOutcome",
      "type": "event"
    },
    {
      "inputs": [],
      "name": "balance",
      "outputs": [
        {
          "internalType": "uint256",
          "name": "",
          "type": "uint256"
        }
      ],
      "stateMutability": "view",
      "type": "function"
    },
    {
      "inputs": [],
      "name": "owner",
      "outputs": [
        {
          "internalType": "address",
          "name": "",
          "type": "address"
        }
      ],
      "stateMutability": "view",
      "type": "function"
    },
    {
      "inputs": [
        {
          "internalType": "uint256",
          "name": "bettedOutcome",
          "type": "uint256"
        }
      ],
      "name": "placeBet",
      "outputs": [],
      "stateMutability": "payable",
      "type": "function"
    },
    {
      "inputs": [],
      "name": "withdrawAll",
      "outputs": [
        {
          "internalType": "uint256",
          "name": "",
          "type": "uint256"
        }
      ],
      "stateMutability": "nonpayable",
      "type": "function"
    },
    {
      "stateMutability": "payable",
      "type": "receive"
    },
    {
      "inputs": [],
      "name": "flipCoin",
      "outputs": [
        {
          "internalType": "uint256",
          "name": "",
          "type": "uint256"
        }
      ],
      "stateMutability": "view",
      "type": "function"
    }
  ],
  "bytecode": "0x608060405234801561001057600080fd5b5060405161069d38038061069d8339818101604052602081101561003357600080fd5b8101908080519060200190929190505050336000806101000a81548173ffffffffffffffffffffffffffffffffffffffff021916908373ffffffffffffffffffffffffffffffffffffffff16021790555080600281905550506106028061009b6000396000f3fe60806040526004361061004e5760003560e01c806310fe7c481461008e578063799ae223146100bc578063853828b6146100e75780638da5cb5b14610112578063b69ef8a81461015357610089565b36610089576000341161006057600080fd5b3460016000828254019250508190555060006001541161007c57fe5b476001541461008757fe5b005b600080fd5b6100ba600480360360208110156100a457600080fd5b810190808035906020019092919050505061017e565b005b3480156100c857600080fd5b506100d1610459565b6040518082815260200191505060405180910390f35b3480156100f357600080fd5b506100fc610463565b6040518082815260200191505060405180910390f35b34801561011e57600080fd5b5061012761051b565b604051808273ffffffffffffffffffffffffffffffffffffffff16815260200191505060405180910390f35b34801561015f57600080fd5b5061016861053f565b6040518082815260200191505060405180910390f35b64e8d4a51000803410156101fa576040517f08c379a000000000000000000000000000000000000000000000000000000000815260040180806020018281038252601a8152602001807f4e6f7420656e6f7567682045746865722070726f76696465642e00000000000081525060200191505060405180910390fd5b60004711610253576040517f08c379a00000000000000000000000000000000000000000000000000000000081526004018080602001828103825260228152602001806105746022913960400191505060405180910390fd5b600234024710156102af576040517f08c379a00000000000000000000000000000000000000000000000000000000081526004018080602001828103825260378152602001806105966037913960400191505060405180910390fd5b60008214806102be5750600182145b610313576040517f08c379a000000000000000000000000000000000000000000000000000000000815260040180806020018281038252602e815260200180610546602e913960400191505060405180910390fd5b61031b610459565b8214156103e4573373ffffffffffffffffffffffffffffffffffffffff166108fc600234029081150290604051600060405180830381858888f1935050505015801561036b573d6000803e3d6000fd5b50600234026001600082825403925050819055507f6cab1a8b5547bd7f36e7577e65bfdf5c0963a6e78944190c6f9b9b82500a226c33346001604051808473ffffffffffffffffffffffffffffffffffffffff1681526020018381526020018215158152602001935050505060405180910390a1610455565b346001600082825401925050819055507f6cab1a8b5547bd7f36e7577e65bfdf5c0963a6e78944190c6f9b9b82500a226c33346000604051808473ffffffffffffffffffffffffffffffffffffffff1681526020018381526020018215158152602001935050505060405180910390a15b5050565b6000600254905090565b60008060009054906101000a900473ffffffffffffffffffffffffffffffffffffffff1673ffffffffffffffffffffffffffffffffffffffff163373ffffffffffffffffffffffffffffffffffffffff16146104be57600080fd5b6000600154905060006001819055503373ffffffffffffffffffffffffffffffffffffffff166108fc829081150290604051600060405180830381858888f19350505050158015610513573d6000803e3d6000fd5b508091505090565b60008054906101000a900473ffffffffffffffffffffffffffffffffffffffff1681565b6001548156fe75736572206d75737420626574206f6e2065697468657220486561647320283029206f72205461696c7320283129426c6f636b636861696e207661723a204d7573742062652061626f7665207a65726f426c6f636b636861696e207661723a2054686520636f6e747261637420646f6573206e6f74206861766520656e6f7567682066756e6473a2646970667358221220d13ea98e44cfa8897850282dfd1411054398032b92138432cbf094371164dc7c64736f6c63430007000033",
  "immutableReferences": {},
  "source": "// SPDX-License-Identifier: UNLICENSED\npragma solidity \"0.7.0\";\n\nimport \"./BetFlip.sol\";\n\ncontract BetFlipMockOutcome is BetFlip {\n  uint256 flipCoinResult;\n\n  constructor (uint256 forcedResult) {\n    flipCoinResult = forcedResult;\n  }\n\n  function flipCoin() override public view returns (uint256) {\n    return flipCoinResult;\n  }\n}\n",
  "sourcePath": "/Users/franzmoro/SW/crypto/eth_smart_contracts/CoinFlipPred/Flipper/contracts/BetFlipMockOutcome.sol",
  "compiler": {
    "name": "solc",
    "version": "0.7.0+commit.9e61f92b.Emscripten.clang"
  },
  "schemaVersion": "3.2.5",
  "updatedAt": "2020-10-06T09:27:35.077Z",
  "devdoc": {
    "kind": "dev",
    "methods": {},
    "version": 1
  },
  "userdoc": {
    "kind": "user",
    "methods": {},
    "version": 1
  }
}