{
  "contractName": "BetFlip",
  "abi": [
    {
      "anonymous": false,
      "inputs": [
        {
          "indexed": false,
          "internalType": "address",
          "name": "userAddress",
          "type": "address"
        },
        {
          "indexed": false,
          "internalType": "uint256",
          "name": "amount",
          "type": "uint256"
        },
        {
          "indexed": false,
          "internalType": "bool",
          "name": "wonOrLost",
          "type": "bool"
        }
      ],
      "name": "BetOutcome",
      "type": "event"
    },
    {
      "inputs": [],
      "name": "balance",
      "outputs": [
        {
          "internalType": "uint256",
          "name": "",
          "type": "uint256"
        }
      ],
      "stateMutability": "view",
      "type": "function",
      "constant": true
    },
    {
      "inputs": [],
      "name": "owner",
      "outputs": [
        {
          "internalType": "address",
          "name": "",
          "type": "address"
        }
      ],
      "stateMutability": "view",
      "type": "function",
      "constant": true
    },
    {
      "stateMutability": "payable",
      "type": "receive",
      "payable": true
    },
    {
      "inputs": [
        {
          "internalType": "uint256",
          "name": "bettedOutcome",
          "type": "uint256"
        }
      ],
      "name": "placeBet",
      "outputs": [],
      "stateMutability": "payable",
      "type": "function",
      "payable": true
    },
    {
      "inputs": [],
      "name": "flipCoin",
      "outputs": [
        {
          "internalType": "uint256",
          "name": "",
          "type": "uint256"
        }
      ],
      "stateMutability": "view",
      "type": "function",
      "constant": true
    },
    {
      "inputs": [],
      "name": "withdrawAll",
      "outputs": [
        {
          "internalType": "uint256",
          "name": "",
          "type": "uint256"
        }
      ],
      "stateMutability": "nonpayable",
      "type": "function"
    }
  ],
  "bytecode": "0x608060405234801561001057600080fd5b50336000806101000a81548173ffffffffffffffffffffffffffffffffffffffff021916908373ffffffffffffffffffffffffffffffffffffffff1602179055506105fb806100606000396000f3fe60806040526004361061004e5760003560e01c806310fe7c481461008e578063799ae223146100bc578063853828b6146100e75780638da5cb5b14610112578063b69ef8a81461015357610089565b36610089576000341161006057600080fd5b3460016000828254019250508190555060006001541161007c57fe5b476001541461008757fe5b005b600080fd5b6100ba600480360360208110156100a457600080fd5b810190808035906020019092919050505061017e565b005b3480156100c857600080fd5b506100d161047c565b6040518082815260200191505060405180910390f35b3480156100f357600080fd5b506100fc61048e565b6040518082815260200191505060405180910390f35b34801561011e57600080fd5b50610127610546565b604051808273ffffffffffffffffffffffffffffffffffffffff16815260200191505060405180910390f35b34801561015f57600080fd5b5061016861056a565b6040518082815260200191505060405180910390f35b67016345785d8a0000803410156101fd576040517f08c379a000000000000000000000000000000000000000000000000000000000815260040180806020018281038252601a8152602001807f4e6f7420656e6f7567682045746865722070726f76696465642e00000000000081525060200191505060405180910390fd5b60004711610273576040517f08c379a000000000000000000000000000000000000000000000000000000000815260040180806020018281038252601f8152602001807f557365722062616c616e6365206d7573742062652061626f7665207a65726f0081525060200191505060405180910390fd5b600234024710156102cf576040517f08c379a000000000000000000000000000000000000000000000000000000000815260040180806020018281038252602781526020018061059f6027913960400191505060405180910390fd5b60008214806102de5750600182145b610333576040517f08c379a000000000000000000000000000000000000000000000000000000000815260040180806020018281038252602e815260200180610571602e913960400191505060405180910390fd5b61033b61047c565b821415610407573373ffffffffffffffffffffffffffffffffffffffff166108fc600234029081150290604051600060405180830381858888f1935050505015801561038b573d6000803e3d6000fd5b50600234026001600082825403925050819055507f49d4a8a615951f4aa7c488f8a48047ac3afca41db2d517fc8742890655222ef933600234026001604051808473ffffffffffffffffffffffffffffffffffffffff1681526020018381526020018215158152602001935050505060405180910390a1610478565b346001600082825401925050819055507f49d4a8a615951f4aa7c488f8a48047ac3afca41db2d517fc8742890655222ef933346000604051808473ffffffffffffffffffffffffffffffffffffffff1681526020018381526020018215158152602001935050505060405180910390a15b5050565b60006002428161048857fe5b06905090565b60008060009054906101000a900473ffffffffffffffffffffffffffffffffffffffff1673ffffffffffffffffffffffffffffffffffffffff163373ffffffffffffffffffffffffffffffffffffffff16146104e957600080fd5b6000600154905060006001819055503373ffffffffffffffffffffffffffffffffffffffff166108fc829081150290604051600060405180830381858888f1935050505015801561053e573d6000803e3d6000fd5b508091505090565b60008054906101000a900473ffffffffffffffffffffffffffffffffffffffff1681565b6001548156fe75736572206d75737420626574206f6e2065697468657220486561647320283029206f72205461696c732028312954686520636f6e747261637420646f6573206e6f74206861766520656e6f7567682066756e6473a26469706673582212209b63c22ccce71beaa62e5a48068fb234b7f5967eaaf194c2800bc37352ddf7c164736f6c63430007000033",
  "immutableReferences": {},
  "source": "// SPDX-License-Identifier: UNLICENSED\npragma solidity \"0.7.0\";\n\nimport \"./Ownable.sol\";\n\ncontract BetFlip is Ownable {\n    uint256 public balance;\n\n    event BetOutcome(address userAddress, uint256 amount, bool wonOrLost);\n\n    modifier minimum(uint256 amount) {\n        require(msg.value >= amount, \"Not enough Ether provided.\");\n        _;\n    }\n\n    function placeBet(uint256 bettedOutcome) public payable minimum(0.1 ether) {\n        require(address(this).balance > 0, \"User balance must be above zero\");\n        require(\n            address(this).balance >= msg.value * 2,\n            \"The contract does not have enough funds\"\n        );\n        require(\n            bettedOutcome == 0 || bettedOutcome == 1,\n            \"user must bet on either Heads (0) or Tails (1)\"\n        );\n\n        if (bettedOutcome == flipCoin()) {\n            msg.sender.transfer(msg.value * 2);\n            // TODO: count tx fee?\n            balance -= msg.value * 2;\n            emit BetOutcome(msg.sender, msg.value * 2, true);\n        } else {\n            balance += msg.value;\n            emit BetOutcome(msg.sender, msg.value, false);\n        }\n    }\n\n    // TODO: use an oracle\n    function flipCoin() public virtual view returns (uint256) {\n        return block.timestamp % 2;\n    }\n\n    function withdrawAll() public onlyOwner returns (uint256) {\n        uint256 toWithdraw = balance;\n        balance = 0;\n        msg.sender.transfer(toWithdraw);\n\n        return toWithdraw;\n    }\n\n    // receivable function - necessary to fund the contract\n    receive() external payable {\n        require(msg.value > 0);\n        balance += msg.value;\n        assert(balance > 0);\n        assert(balance == address(this).balance);\n    }\n}\n",
  "sourcePath": "/Users/franzmoro/SW/crypto/eth_smart_contracts/CoinFlipPred/BetFlip/contracts/BetFlip.sol",
  "compiler": {
    "name": "solc",
    "version": "0.7.0+commit.9e61f92b.Emscripten.clang"
  },
  "schemaVersion": "3.2.5",
  "updatedAt": "2020-10-06T13:34:24.667Z",
  "networkType": "ethereum",
  "devdoc": {
    "kind": "dev",
    "methods": {},
    "version": 1
  },
  "userdoc": {
    "kind": "user",
    "methods": {},
    "version": 1
  }
}